{
  "contractName": "Contractor",
  "abi": [
    {
      "anonymous": false,
      "inputs": [
        {
          "indexed": false,
          "internalType": "address",
          "name": "contractAddress",
          "type": "address"
        }
      ],
      "name": "ContractFormed",
      "type": "event"
    },
    {
      "anonymous": false,
      "inputs": [
        {
          "indexed": false,
          "internalType": "address",
          "name": "_to",
          "type": "address"
        },
        {
          "indexed": false,
          "internalType": "uint256",
          "name": "amount",
          "type": "uint256"
        }
      ],
      "name": "SentToAccount",
      "type": "event"
    },
    {
      "stateMutability": "payable",
      "type": "receive"
    },
    {
      "inputs": [],
      "name": "createNewWork",
      "outputs": [],
      "stateMutability": "nonpayable",
      "type": "function"
    },
    {
      "inputs": [
        {
          "internalType": "uint256",
          "name": "amount",
          "type": "uint256"
        },
        {
          "internalType": "address payable",
          "name": "account",
          "type": "address"
        }
      ],
      "name": "sendToAccount",
      "outputs": [],
      "stateMutability": "nonpayable",
      "type": "function"
    }
  ],
  "bytecode": "0x608060405234801561001057600080fd5b50610ba5806100206000396000f3fe60806040526004361061002d5760003560e01c80636310a4b914610072578063704319c91461009b5761006d565b3661006d577f9432388ce97f7a9c32c9f59b80e8f02109760f1f70d7ac8380a7cfc50dce571a3034604051610063929190610373565b60405180910390a1005b600080fd5b34801561007e57600080fd5b5061009960048036038101906100949190610277565b6100b2565b005b3480156100a757600080fd5b506100b06101ce565b005b478211156100f5576040517f08c379a00000000000000000000000000000000000000000000000000000000081526004016100ec906103b7565b60405180910390fd5b7f9432388ce97f7a9c32c9f59b80e8f02109760f1f70d7ac8380a7cfc50dce571a818360405161012692919061034a565b60405180910390a1816000808373ffffffffffffffffffffffffffffffffffffffff1673ffffffffffffffffffffffffffffffffffffffff168152602001908152602001600020600082825461017c91906103e8565b925050819055508073ffffffffffffffffffffffffffffffffffffffff166108fc839081150290604051600060405180830381858888f193505050501580156101c9573d6000803e3d6000fd5b505050565b6000306040516101dd90610240565b6101e7919061039c565b604051809103906000f080158015610203573d6000803e3d6000fd5b5090507f4761a9db7d11eeb66b70d289d12c6dfff48a69c7d31929640997afec7ab3ca8081604051610235919061032f565b60405180910390a150565b61062c8061054483390190565b60008135905061025c81610515565b92915050565b6000813590506102718161052c565b92915050565b6000806040838503121561028a57600080fd5b600061029885828601610262565b92505060206102a98582860161024d565b9150509250929050565b6102bc8161048c565b82525050565b6102cb8161043e565b82525050565b6102da8161049e565b82525050565b60006102ed6012836103d7565b91507f496e73756666696369656e742066756e647300000000000000000000000000006000830152602082019050919050565b61032981610482565b82525050565b600060208201905061034460008301846102c2565b92915050565b600060408201905061035f60008301856102b3565b61036c6020830184610320565b9392505050565b600060408201905061038860008301856102c2565b6103956020830184610320565b9392505050565b60006020820190506103b160008301846102d1565b92915050565b600060208201905081810360008301526103d0816102e0565b9050919050565b600082825260208201905092915050565b60006103f382610482565b91506103fe83610482565b9250827fffffffffffffffffffffffffffffffffffffffffffffffffffffffffffffffff03821115610433576104326104e6565b5b828201905092915050565b600061044982610462565b9050919050565b600061045b82610462565b9050919050565b600073ffffffffffffffffffffffffffffffffffffffff82169050919050565b6000819050919050565b6000610497826104c2565b9050919050565b60006104a9826104b0565b9050919050565b60006104bb82610462565b9050919050565b60006104cd826104d4565b9050919050565b60006104df82610462565b9050919050565b7f4e487b7100000000000000000000000000000000000000000000000000000000600052601160045260246000fd5b61051e81610450565b811461052957600080fd5b50565b61053581610482565b811461054057600080fd5b5056fe608060405234801561001057600080fd5b5060405161062c38038061062c8339818101604052810190610032919061008d565b806000806101000a81548173ffffffffffffffffffffffffffffffffffffffff021916908373ffffffffffffffffffffffffffffffffffffffff16021790555050610111565b600081519050610087816100fa565b92915050565b60006020828403121561009f57600080fd5b60006100ad84828501610078565b91505092915050565b60006100c1826100da565b9050919050565b60006100d3826100b6565b9050919050565b600073ffffffffffffffffffffffffffffffffffffffff82169050919050565b610103816100c8565b811461010e57600080fd5b50565b61050c806101206000396000f3fe6080604052600436106100385760003560e01c8063548769211461005d5780638da5cb5b14610086578063ed01bf29146100b157610058565b3661005857346001600082825461004f91906103ec565b92505081905550005b600080fd5b34801561006957600080fd5b50610084600480360381019061007f9190610275565b6100dc565b005b34801561009257600080fd5b5061009b610236565b6040516100a8919061033c565b60405180910390f35b3480156100bd57600080fd5b506100c661025a565b6040516100d39190610397565b60405180910390f35b60008054906101000a900473ffffffffffffffffffffffffffffffffffffffff1673ffffffffffffffffffffffffffffffffffffffff163373ffffffffffffffffffffffffffffffffffffffff161461016a576040517f08c379a000000000000000000000000000000000000000000000000000000000815260040161016190610357565b60405180910390fd5b478111156101ad576040517f08c379a00000000000000000000000000000000000000000000000000000000081526004016101a490610377565b60405180910390fd5b60003390508073ffffffffffffffffffffffffffffffffffffffff166108fc839081150290604051600060405180830381858888f193505050501580156101f8573d6000803e3d6000fd5b507f4d5cad599e80b97037bd6cd2da9cd361fc74837cdb6ec7aa1cea6f81a8273282824760405161022a9291906103b2565b60405180910390a15050565b60008054906101000a900473ffffffffffffffffffffffffffffffffffffffff1681565b60015481565b60008135905061026f816104bf565b92915050565b60006020828403121561028757600080fd5b600061029584828501610260565b91505092915050565b6102a78161046c565b82525050565b60006102ba6015836103db565b91507f596f7520617265206e6f7420746865206f776e657200000000000000000000006000830152602082019050919050565b60006102fa601e836103db565b91507f496e73756666696369656e742066756e647320696e20636f6e747261637400006000830152602082019050919050565b61033681610462565b82525050565b6000602082019050610351600083018461029e565b92915050565b60006020820190508181036000830152610370816102ad565b9050919050565b60006020820190508181036000830152610390816102ed565b9050919050565b60006020820190506103ac600083018461032d565b92915050565b60006040820190506103c7600083018561032d565b6103d4602083018461032d565b9392505050565b600082825260208201905092915050565b60006103f782610462565b915061040283610462565b9250827fffffffffffffffffffffffffffffffffffffffffffffffffffffffffffffffff0382111561043757610436610490565b5b828201905092915050565b600073ffffffffffffffffffffffffffffffffffffffff82169050919050565b6000819050919050565b60006104778261047e565b9050919050565b600061048982610442565b9050919050565b7f4e487b7100000000000000000000000000000000000000000000000000000000600052601160045260246000fd5b6104c881610462565b81146104d357600080fd5b5056fea264697066735822122046af1500ce6a656d6825809883e15fdb2fc84b15b425b5dc303ac23f501e46bb64736f6c63430008000033a2646970667358221220dda60dfb9b1e5d567e656b740fd32bc92879539353077083ccf14de0a8ea50e064736f6c63430008000033",
  "immutableReferences": {},
  "source": "//SPDX-License-Identifier: UNLICENSED\npragma solidity ^0.8.0;\n\nimport \"./Work.sol\";\n\ncontract Contractor{\n\n    mapping(address=>uint) taken;\n\n    event ContractFormed(address contractAddress);\n    event SentToAccount(address _to, uint amount);\n\n    function createNewWork() public{\n        Work w = new Work(this);\n        emit ContractFormed(address(w));\n    }\n\n    receive() external payable{\n        emit SentToAccount(address(this), msg.value);\n    }\n\n    function sendToAccount(uint amount, address payable account) public {\n        require(amount<=address(this).balance, \"Insufficient funds\");\n        emit SentToAccount(account, amount);\n        taken[account]+=amount;\n        account.transfer(amount);\n    }\n}",
  "sourcePath": "/Users/agrim/Desktop/Coding work/BlockchainDev/TaxChain/contracts/Contractor.sol",
  "compiler": {
    "name": "solc",
    "version": "0.8.0+commit.c7dfd78e.Emscripten.clang"
  },
  "schemaVersion": "3.4.0",
  "updatedAt": "2021-05-06T17:33:19.203Z",
  "devdoc": {
    "kind": "dev",
    "methods": {},
    "version": 1
  },
  "userdoc": {
    "kind": "user",
    "methods": {},
    "version": 1
  }
}