{
  "contractName": "Contractor",
  "abi": [
    {
      "anonymous": false,
      "inputs": [
        {
          "indexed": false,
          "internalType": "address",
          "name": "owner",
          "type": "address"
        },
        {
          "indexed": false,
          "internalType": "address",
          "name": "_work",
          "type": "address"
        }
      ],
      "name": "WorkCreated",
      "type": "event"
    },
    {
      "inputs": [],
      "name": "createNewWork",
      "outputs": [],
      "stateMutability": "nonpayable",
      "type": "function"
    }
  ],
  "bytecode": "0x608060405234801561001057600080fd5b5061077e806100206000396000f3fe608060405234801561001057600080fd5b506004361061002b5760003560e01c8063704319c914610030575b600080fd5b61003861003a565b005b600033604051610049906100ae565b61005391906100ca565b604051809103906000f08015801561006f573d6000803e3d6000fd5b5090507fbf4c1aba6e0a27e6e073d32e4f2d211e82b4b7766e60bebb56319ee69d49456333826040516100a39291906100e5565b60405180910390a150565b6106088061014183390190565b6100c48161010e565b82525050565b60006020820190506100df60008301846100bb565b92915050565b60006040820190506100fa60008301856100bb565b61010760208301846100bb565b9392505050565b600061011982610120565b9050919050565b600073ffffffffffffffffffffffffffffffffffffffff8216905091905056fe608060405234801561001057600080fd5b506040516106083803806106088339818101604052810190610032919061008d565b806000806101000a81548173ffffffffffffffffffffffffffffffffffffffff021916908373ffffffffffffffffffffffffffffffffffffffff160217905550506100ff565b600081519050610087816100e8565b92915050565b60006020828403121561009f57600080fd5b60006100ad84828501610078565b91505092915050565b60006100c1826100c8565b9050919050565b600073ffffffffffffffffffffffffffffffffffffffff82169050919050565b6100f1816100b6565b81146100fc57600080fd5b50565b6104fa8061010e6000396000f3fe6080604052600436106100385760003560e01c8063548769211461005d5780638da5cb5b14610086578063ed01bf29146100b157610058565b3661005857346001600082825461004f91906103ec565b92505081905550005b600080fd5b34801561006957600080fd5b50610084600480360381019061007f9190610275565b6100dc565b005b34801561009257600080fd5b5061009b610236565b6040516100a8919061033c565b60405180910390f35b3480156100bd57600080fd5b506100c661025a565b6040516100d39190610397565b60405180910390f35b60008054906101000a900473ffffffffffffffffffffffffffffffffffffffff1673ffffffffffffffffffffffffffffffffffffffff163373ffffffffffffffffffffffffffffffffffffffff161461016a576040517f08c379a000000000000000000000000000000000000000000000000000000000815260040161016190610357565b60405180910390fd5b478111156101ad576040517f08c379a00000000000000000000000000000000000000000000000000000000081526004016101a490610377565b60405180910390fd5b60003390508073ffffffffffffffffffffffffffffffffffffffff166108fc839081150290604051600060405180830381858888f193505050501580156101f8573d6000803e3d6000fd5b507f4d5cad599e80b97037bd6cd2da9cd361fc74837cdb6ec7aa1cea6f81a8273282824760405161022a9291906103b2565b60405180910390a15050565b60008054906101000a900473ffffffffffffffffffffffffffffffffffffffff1681565b60015481565b60008135905061026f816104ad565b92915050565b60006020828403121561028757600080fd5b600061029584828501610260565b91505092915050565b6102a781610442565b82525050565b60006102ba6015836103db565b91507f596f7520617265206e6f7420746865206f776e657200000000000000000000006000830152602082019050919050565b60006102fa601e836103db565b91507f496e73756666696369656e742066756e647320696e20636f6e747261637400006000830152602082019050919050565b61033681610474565b82525050565b6000602082019050610351600083018461029e565b92915050565b60006020820190508181036000830152610370816102ad565b9050919050565b60006020820190508181036000830152610390816102ed565b9050919050565b60006020820190506103ac600083018461032d565b92915050565b60006040820190506103c7600083018561032d565b6103d4602083018461032d565b9392505050565b600082825260208201905092915050565b60006103f782610474565b915061040283610474565b9250827fffffffffffffffffffffffffffffffffffffffffffffffffffffffffffffffff038211156104375761043661047e565b5b828201905092915050565b600061044d82610454565b9050919050565b600073ffffffffffffffffffffffffffffffffffffffff82169050919050565b6000819050919050565b7f4e487b7100000000000000000000000000000000000000000000000000000000600052601160045260246000fd5b6104b681610474565b81146104c157600080fd5b5056fea2646970667358221220c5ad4420f9464f5fe2a724b00e9e40506c2f2fd1b73a1c97a1357e02cb9209c064736f6c63430008000033a264697066735822122044af32fa97616674843c1a7eef10db8f4f03e7aeec1dc7ba141ddd9d72891deb64736f6c63430008000033",
  "immutableReferences": {},
  "source": "//SPDX-License-Identifier: UNLICENSED\npragma solidity ^0.8.0;\n\nimport \"./Work.sol\";\n\ncontract Contractor{\n\n    event WorkCreated(address owner, address _work);\n\n    function createNewWork() public{\n        Work w = new Work(msg.sender);\n        emit WorkCreated(msg.sender, address(w));\n    }\n}",
  "sourcePath": "/Users/agrim/Desktop/Coding work/BlockchainDev/TaxChain/contracts/Contractor.sol",
  "compiler": {
    "name": "solc",
    "version": "0.8.0+commit.c7dfd78e.Emscripten.clang"
  },
  "schemaVersion": "3.4.0",
  "updatedAt": "2021-05-08T15:10:37.951Z",
  "networkType": "ethereum",
  "devdoc": {
    "kind": "dev",
    "methods": {},
    "version": 1
  },
  "userdoc": {
    "kind": "user",
    "methods": {},
    "version": 1
  }
}