{
  "contractName": "Contractor",
  "abi": [
    {
      "anonymous": false,
      "inputs": [
        {
          "indexed": false,
          "internalType": "address",
          "name": "contractAddress",
          "type": "address"
        }
      ],
      "name": "ContractFormed",
      "type": "event"
    },
    {
      "anonymous": false,
      "inputs": [
        {
          "indexed": false,
          "internalType": "address",
          "name": "_to",
          "type": "address"
        },
        {
          "indexed": false,
          "internalType": "uint256",
          "name": "amount",
          "type": "uint256"
        }
      ],
      "name": "SentToAccount",
      "type": "event"
    },
    {
      "inputs": [],
      "name": "createNewWork",
      "outputs": [],
      "stateMutability": "nonpayable",
      "type": "function"
    },
    {
      "inputs": [
        {
          "internalType": "uint256",
          "name": "amount",
          "type": "uint256"
        },
        {
          "internalType": "address payable",
          "name": "account",
          "type": "address"
        }
      ],
      "name": "sendToAccount",
      "outputs": [],
      "stateMutability": "nonpayable",
      "type": "function"
    }
  ],
  "bytecode": "0x608060405234801561001057600080fd5b50610a84806100206000396000f3fe608060405234801561001057600080fd5b50600436106100365760003560e01c80636310a4b91461003b578063704319c914610057575b600080fd5b610055600480360381019061005091906101f0565b610061565b005b61005f610147565b005b4782111561006e57600080fd5b8073ffffffffffffffffffffffffffffffffffffffff166108fc839081150290604051600060405180830381858888f193505050501580156100b4573d6000803e3d6000fd5b50816000808373ffffffffffffffffffffffffffffffffffffffff1673ffffffffffffffffffffffffffffffffffffffff168152602001908152602001600020600082825461010391906102c7565b925050819055507f9432388ce97f7a9c32c9f59b80e8f02109760f1f70d7ac8380a7cfc50dce571a818360405161013b929190610283565b60405180910390a15050565b600030604051610156906101b9565b61016091906102ac565b604051809103906000f08015801561017c573d6000803e3d6000fd5b5090507f4761a9db7d11eeb66b70d289d12c6dfff48a69c7d31929640997afec7ab3ca80816040516101ae9190610268565b60405180910390a150565b61062c8061042383390190565b6000813590506101d5816103f4565b92915050565b6000813590506101ea8161040b565b92915050565b6000806040838503121561020357600080fd5b6000610211858286016101db565b9250506020610222858286016101c6565b9150509250929050565b6102358161036b565b82525050565b6102448161031d565b82525050565b6102538161037d565b82525050565b61026281610361565b82525050565b600060208201905061027d600083018461023b565b92915050565b6000604082019050610298600083018561022c565b6102a56020830184610259565b9392505050565b60006020820190506102c1600083018461024a565b92915050565b60006102d282610361565b91506102dd83610361565b9250827fffffffffffffffffffffffffffffffffffffffffffffffffffffffffffffffff03821115610312576103116103c5565b5b828201905092915050565b600061032882610341565b9050919050565b600061033a82610341565b9050919050565b600073ffffffffffffffffffffffffffffffffffffffff82169050919050565b6000819050919050565b6000610376826103a1565b9050919050565b60006103888261038f565b9050919050565b600061039a82610341565b9050919050565b60006103ac826103b3565b9050919050565b60006103be82610341565b9050919050565b7f4e487b7100000000000000000000000000000000000000000000000000000000600052601160045260246000fd5b6103fd8161032f565b811461040857600080fd5b50565b61041481610361565b811461041f57600080fd5b5056fe608060405234801561001057600080fd5b5060405161062c38038061062c8339818101604052810190610032919061008d565b806000806101000a81548173ffffffffffffffffffffffffffffffffffffffff021916908373ffffffffffffffffffffffffffffffffffffffff16021790555050610111565b600081519050610087816100fa565b92915050565b60006020828403121561009f57600080fd5b60006100ad84828501610078565b91505092915050565b60006100c1826100da565b9050919050565b60006100d3826100b6565b9050919050565b600073ffffffffffffffffffffffffffffffffffffffff82169050919050565b610103816100c8565b811461010e57600080fd5b50565b61050c806101206000396000f3fe6080604052600436106100385760003560e01c8063548769211461005d5780638da5cb5b14610086578063ed01bf29146100b157610058565b3661005857346001600082825461004f91906103ec565b92505081905550005b600080fd5b34801561006957600080fd5b50610084600480360381019061007f9190610275565b6100dc565b005b34801561009257600080fd5b5061009b610236565b6040516100a8919061033c565b60405180910390f35b3480156100bd57600080fd5b506100c661025a565b6040516100d39190610397565b60405180910390f35b60008054906101000a900473ffffffffffffffffffffffffffffffffffffffff1673ffffffffffffffffffffffffffffffffffffffff163373ffffffffffffffffffffffffffffffffffffffff161461016a576040517f08c379a000000000000000000000000000000000000000000000000000000000815260040161016190610357565b60405180910390fd5b478111156101ad576040517f08c379a00000000000000000000000000000000000000000000000000000000081526004016101a490610377565b60405180910390fd5b60003390508073ffffffffffffffffffffffffffffffffffffffff166108fc839081150290604051600060405180830381858888f193505050501580156101f8573d6000803e3d6000fd5b507f4d5cad599e80b97037bd6cd2da9cd361fc74837cdb6ec7aa1cea6f81a8273282824760405161022a9291906103b2565b60405180910390a15050565b60008054906101000a900473ffffffffffffffffffffffffffffffffffffffff1681565b60015481565b60008135905061026f816104bf565b92915050565b60006020828403121561028757600080fd5b600061029584828501610260565b91505092915050565b6102a78161046c565b82525050565b60006102ba6015836103db565b91507f596f7520617265206e6f7420746865206f776e657200000000000000000000006000830152602082019050919050565b60006102fa601e836103db565b91507f496e73756666696369656e742066756e647320696e20636f6e747261637400006000830152602082019050919050565b61033681610462565b82525050565b6000602082019050610351600083018461029e565b92915050565b60006020820190508181036000830152610370816102ad565b9050919050565b60006020820190508181036000830152610390816102ed565b9050919050565b60006020820190506103ac600083018461032d565b92915050565b60006040820190506103c7600083018561032d565b6103d4602083018461032d565b9392505050565b600082825260208201905092915050565b60006103f782610462565b915061040283610462565b9250827fffffffffffffffffffffffffffffffffffffffffffffffffffffffffffffffff0382111561043757610436610490565b5b828201905092915050565b600073ffffffffffffffffffffffffffffffffffffffff82169050919050565b6000819050919050565b60006104778261047e565b9050919050565b600061048982610442565b9050919050565b7f4e487b7100000000000000000000000000000000000000000000000000000000600052601160045260246000fd5b6104c881610462565b81146104d357600080fd5b5056fea2646970667358221220b7598efaa076d51f111bed8624cc7a60365eec858e5c23543832bfa5c9d87e6064736f6c63430008000033a26469706673582212201c2d26dd9126e946a029599643291f1b397f7e81a0f6e1c824779f1c7087845a64736f6c63430008000033",
  "immutableReferences": {},
  "source": "//SPDX-License-Identifier: UNLICENSED\npragma solidity ^0.8.0;\n\nimport \"./Work.sol\";\n\ncontract Contractor{\n\n    mapping(address=>uint) taken;\n\n    event ContractFormed(address contractAddress);\n    event SentToAccount(address _to, uint amount);\n\n    function createNewWork() public{\n        Work w = new Work(this);\n        emit ContractFormed(address(w));\n    }\n\n    function sendToAccount(uint amount, address payable account) public {\n        require(amount<=address(this).balance);\n        account.transfer(amount);\n        taken[account]+=amount;\n        emit SentToAccount(account, amount);\n    }\n}",
  "sourcePath": "/Users/agrim/Desktop/Coding work/BlockchainDev/TaxChain/contracts/Contractor.sol",
  "compiler": {
    "name": "solc",
    "version": "0.8.0+commit.c7dfd78e.Emscripten.clang"
  },
  "schemaVersion": "3.4.0",
  "updatedAt": "2021-05-06T16:35:24.037Z",
  "devdoc": {
    "kind": "dev",
    "methods": {},
    "version": 1
  },
  "userdoc": {
    "kind": "user",
    "methods": {},
    "version": 1
  }
}