{
  "contractName": "GovtDetails",
  "abi": [
    {
      "anonymous": false,
      "inputs": [
        {
          "indexed": true,
          "internalType": "address",
          "name": "previousOwner",
          "type": "address"
        },
        {
          "indexed": true,
          "internalType": "address",
          "name": "newOwner",
          "type": "address"
        }
      ],
      "name": "OwnershipTransferred",
      "type": "event"
    },
    {
      "inputs": [],
      "name": "govtAddress",
      "outputs": [
        {
          "internalType": "address",
          "name": "",
          "type": "address"
        }
      ],
      "stateMutability": "view",
      "type": "function",
      "constant": true
    },
    {
      "inputs": [],
      "name": "owner",
      "outputs": [
        {
          "internalType": "address",
          "name": "",
          "type": "address"
        }
      ],
      "stateMutability": "view",
      "type": "function",
      "constant": true
    },
    {
      "inputs": [],
      "name": "renounceOwnership",
      "outputs": [],
      "stateMutability": "nonpayable",
      "type": "function"
    },
    {
      "inputs": [
        {
          "internalType": "address",
          "name": "newOwner",
          "type": "address"
        }
      ],
      "name": "transferOwnership",
      "outputs": [],
      "stateMutability": "nonpayable",
      "type": "function"
    },
    {
      "inputs": [
        {
          "internalType": "string",
          "name": "cName",
          "type": "string"
        }
      ],
      "name": "getConstituencyAddress",
      "outputs": [
        {
          "internalType": "address",
          "name": "",
          "type": "address"
        }
      ],
      "stateMutability": "view",
      "type": "function",
      "constant": true
    },
    {
      "inputs": [
        {
          "internalType": "string",
          "name": "cName",
          "type": "string"
        },
        {
          "internalType": "address",
          "name": "_addr",
          "type": "address"
        }
      ],
      "name": "setConstituencyAddress",
      "outputs": [],
      "stateMutability": "nonpayable",
      "type": "function"
    },
    {
      "inputs": [
        {
          "internalType": "address",
          "name": "_addr",
          "type": "address"
        }
      ],
      "name": "setGovtAddress",
      "outputs": [],
      "stateMutability": "nonpayable",
      "type": "function"
    }
  ],
  "bytecode": "0x608060405234801561001057600080fd5b5060006100216100c460201b60201c565b9050806000806101000a81548173ffffffffffffffffffffffffffffffffffffffff021916908373ffffffffffffffffffffffffffffffffffffffff1602179055508073ffffffffffffffffffffffffffffffffffffffff16600073ffffffffffffffffffffffffffffffffffffffff167f8be0079c531659141344cd1fd0a4f28419497f9722a3daafe3b4186f6b6457e060405160405180910390a3506100cc565b600033905090565b610ba5806100db6000396000f3fe608060405234801561001057600080fd5b506004361061007d5760003560e01c8063af86e0541161005b578063af86e054146100c6578063b103e46a146100e2578063d2445c8914610112578063f2fde38b146101305761007d565b8063715018a614610082578063790d57501461008c5780638da5cb5b146100a8575b600080fd5b61008a61014c565b005b6100a660048036038101906100a191906107b7565b610286565b005b6100b0610346565b6040516100bd91906109b2565b60405180910390f35b6100e060048036038101906100db9190610821565b61036f565b005b6100fc60048036038101906100f791906107e0565b61044c565b60405161010991906109b2565b60405180910390f35b61011a610563565b60405161012791906109b2565b60405180910390f35b61014a600480360381019061014591906107b7565b610589565b005b610154610732565b73ffffffffffffffffffffffffffffffffffffffff16610172610346565b73ffffffffffffffffffffffffffffffffffffffff16146101c8576040517f08c379a00000000000000000000000000000000000000000000000000000000081526004016101bf90610a0d565b60405180910390fd5b600073ffffffffffffffffffffffffffffffffffffffff1660008054906101000a900473ffffffffffffffffffffffffffffffffffffffff1673ffffffffffffffffffffffffffffffffffffffff167f8be0079c531659141344cd1fd0a4f28419497f9722a3daafe3b4186f6b6457e060405160405180910390a360008060006101000a81548173ffffffffffffffffffffffffffffffffffffffff021916908373ffffffffffffffffffffffffffffffffffffffff160217905550565b61028e610732565b73ffffffffffffffffffffffffffffffffffffffff166102ac610346565b73ffffffffffffffffffffffffffffffffffffffff1614610302576040517f08c379a00000000000000000000000000000000000000000000000000000000081526004016102f990610a0d565b60405180910390fd5b80600160006101000a81548173ffffffffffffffffffffffffffffffffffffffff021916908373ffffffffffffffffffffffffffffffffffffffff16021790555050565b60008060009054906101000a900473ffffffffffffffffffffffffffffffffffffffff16905090565b610377610732565b73ffffffffffffffffffffffffffffffffffffffff16610395610346565b73ffffffffffffffffffffffffffffffffffffffff16146103eb576040517f08c379a00000000000000000000000000000000000000000000000000000000081526004016103e290610a0d565b60405180910390fd5b806002836040516103fc919061099b565b908152602001604051809103902060006101000a81548173ffffffffffffffffffffffffffffffffffffffff021916908373ffffffffffffffffffffffffffffffffffffffff1602179055505050565b6000600360009054906101000a900473ffffffffffffffffffffffffffffffffffffffff1673ffffffffffffffffffffffffffffffffffffffff16600283604051610497919061099b565b908152602001604051809103902060009054906101000a900473ffffffffffffffffffffffffffffffffffffffff1673ffffffffffffffffffffffffffffffffffffffff16141561051d576040517f08c379a0000000000000000000000000000000000000000000000000000000008152600401610514906109ed565b60405180910390fd5b60028260405161052d919061099b565b908152602001604051809103902060009054906101000a900473ffffffffffffffffffffffffffffffffffffffff169050919050565b600160009054906101000a900473ffffffffffffffffffffffffffffffffffffffff1681565b610591610732565b73ffffffffffffffffffffffffffffffffffffffff166105af610346565b73ffffffffffffffffffffffffffffffffffffffff1614610605576040517f08c379a00000000000000000000000000000000000000000000000000000000081526004016105fc90610a0d565b60405180910390fd5b600073ffffffffffffffffffffffffffffffffffffffff168173ffffffffffffffffffffffffffffffffffffffff161415610675576040517f08c379a000000000000000000000000000000000000000000000000000000000815260040161066c906109cd565b60405180910390fd5b8073ffffffffffffffffffffffffffffffffffffffff1660008054906101000a900473ffffffffffffffffffffffffffffffffffffffff1673ffffffffffffffffffffffffffffffffffffffff167f8be0079c531659141344cd1fd0a4f28419497f9722a3daafe3b4186f6b6457e060405160405180910390a3806000806101000a81548173ffffffffffffffffffffffffffffffffffffffff021916908373ffffffffffffffffffffffffffffffffffffffff16021790555050565b600033905090565b600061074d61074884610a5e565b610a2d565b90508281526020810184848401111561076557600080fd5b610770848285610ae7565b509392505050565b60008135905061078781610b58565b92915050565b600082601f83011261079e57600080fd5b81356107ae84826020860161073a565b91505092915050565b6000602082840312156107c957600080fd5b60006107d784828501610778565b91505092915050565b6000602082840312156107f257600080fd5b600082013567ffffffffffffffff81111561080c57600080fd5b6108188482850161078d565b91505092915050565b6000806040838503121561083457600080fd5b600083013567ffffffffffffffff81111561084e57600080fd5b61085a8582860161078d565b925050602061086b85828601610778565b9150509250929050565b61087e81610ab5565b82525050565b600061088f82610a8e565b6108998185610aaa565b93506108a9818560208601610af6565b80840191505092915050565b60006108c2602683610a99565b91507f4f776e61626c653a206e6577206f776e657220697320746865207a65726f206160008301527f64647265737300000000000000000000000000000000000000000000000000006020830152604082019050919050565b6000610928601d83610a99565b91507f436f6e7374697475656e6379204e616d6520697320696e76616c69642e0000006000830152602082019050919050565b6000610968602083610a99565b91507f4f776e61626c653a2063616c6c6572206973206e6f7420746865206f776e65726000830152602082019050919050565b60006109a78284610884565b915081905092915050565b60006020820190506109c76000830184610875565b92915050565b600060208201905081810360008301526109e6816108b5565b9050919050565b60006020820190508181036000830152610a068161091b565b9050919050565b60006020820190508181036000830152610a268161095b565b9050919050565b6000604051905081810181811067ffffffffffffffff82111715610a5457610a53610b29565b5b8060405250919050565b600067ffffffffffffffff821115610a7957610a78610b29565b5b601f19601f8301169050602081019050919050565b600081519050919050565b600082825260208201905092915050565b600081905092915050565b6000610ac082610ac7565b9050919050565b600073ffffffffffffffffffffffffffffffffffffffff82169050919050565b82818337600083830152505050565b60005b83811015610b14578082015181840152602081019050610af9565b83811115610b23576000848401525b50505050565b7f4e487b7100000000000000000000000000000000000000000000000000000000600052604160045260246000fd5b610b6181610ab5565b8114610b6c57600080fd5b5056fea2646970667358221220782599588a4ae24777cac77a1e5dfed7ace071e9bff5766f2b46b2eed0b3bd2a64736f6c63430008000033",
  "immutableReferences": {},
  "source": "//SPDX-License-Identifier: UNLICENSED\npragma solidity ^0.8.0;\n\nimport \"@openzeppelin/contracts/access/Ownable.sol\";\n\ncontract GovtDetails is Ownable{\n    address public govtAddress;\n    mapping(string=>address) constituencyAddress;\n    address emptyAddress;\n\n    function getConstituencyAddress(string memory cName) public view returns(address){\n        require(constituencyAddress[cName] != emptyAddress,\"Constituency Name is invalid.\");\n        return constituencyAddress[cName];\n    }\n\n    function setConstituencyAddress(string memory cName, address _addr) public onlyOwner{\n        constituencyAddress[cName] = _addr;\n    }\n\n    function setGovtAddress(address _addr) public onlyOwner{\n        govtAddress = _addr;\n    }\n}",
  "sourcePath": "/Users/agrim/Desktop/Coding work/BlockchainDev/TaxChain/contracts/GovtDetails.sol",
  "compiler": {
    "name": "solc",
    "version": "0.8.0+commit.c7dfd78e.Emscripten.clang"
  },
  "schemaVersion": "3.4.0",
  "updatedAt": "2021-05-06T17:04:26.803Z",
  "networkType": "ethereum",
  "devdoc": {
    "kind": "dev",
    "methods": {
      "owner()": {
        "details": "Returns the address of the current owner."
      },
      "renounceOwnership()": {
        "details": "Leaves the contract without owner. It will not be possible to call `onlyOwner` functions anymore. Can only be called by the current owner. NOTE: Renouncing ownership will leave the contract without an owner, thereby removing any functionality that is only available to the owner."
      },
      "transferOwnership(address)": {
        "details": "Transfers ownership of the contract to a new account (`newOwner`). Can only be called by the current owner."
      }
    },
    "version": 1
  },
  "userdoc": {
    "kind": "user",
    "methods": {},
    "version": 1
  }
}