{
  "contractName": "GovtDetails",
  "abi": [
    {
      "anonymous": false,
      "inputs": [
        {
          "indexed": true,
          "internalType": "address",
          "name": "previousOwner",
          "type": "address"
        },
        {
          "indexed": true,
          "internalType": "address",
          "name": "newOwner",
          "type": "address"
        }
      ],
      "name": "OwnershipTransferred",
      "type": "event"
    },
    {
      "inputs": [],
      "name": "govtAddress",
      "outputs": [
        {
          "internalType": "address",
          "name": "",
          "type": "address"
        }
      ],
      "stateMutability": "view",
      "type": "function",
      "constant": true
    },
    {
      "inputs": [
        {
          "internalType": "address",
          "name": "",
          "type": "address"
        }
      ],
      "name": "isConstituency",
      "outputs": [
        {
          "internalType": "bool",
          "name": "",
          "type": "bool"
        }
      ],
      "stateMutability": "view",
      "type": "function",
      "constant": true
    },
    {
      "inputs": [
        {
          "internalType": "address",
          "name": "",
          "type": "address"
        }
      ],
      "name": "isContractor",
      "outputs": [
        {
          "internalType": "bool",
          "name": "",
          "type": "bool"
        }
      ],
      "stateMutability": "view",
      "type": "function",
      "constant": true
    },
    {
      "inputs": [],
      "name": "owner",
      "outputs": [
        {
          "internalType": "address",
          "name": "",
          "type": "address"
        }
      ],
      "stateMutability": "view",
      "type": "function",
      "constant": true
    },
    {
      "inputs": [],
      "name": "renounceOwnership",
      "outputs": [],
      "stateMutability": "nonpayable",
      "type": "function"
    },
    {
      "inputs": [
        {
          "internalType": "address",
          "name": "newOwner",
          "type": "address"
        }
      ],
      "name": "transferOwnership",
      "outputs": [],
      "stateMutability": "nonpayable",
      "type": "function"
    },
    {
      "inputs": [
        {
          "internalType": "string",
          "name": "cName",
          "type": "string"
        }
      ],
      "name": "getConstituencyAddress",
      "outputs": [
        {
          "internalType": "address",
          "name": "",
          "type": "address"
        }
      ],
      "stateMutability": "view",
      "type": "function",
      "constant": true
    },
    {
      "inputs": [
        {
          "internalType": "string",
          "name": "cName",
          "type": "string"
        },
        {
          "internalType": "address",
          "name": "_addr",
          "type": "address"
        }
      ],
      "name": "setConstituencyAddress",
      "outputs": [],
      "stateMutability": "nonpayable",
      "type": "function"
    },
    {
      "inputs": [
        {
          "internalType": "address",
          "name": "_addr",
          "type": "address"
        }
      ],
      "name": "setGovtAddress",
      "outputs": [],
      "stateMutability": "nonpayable",
      "type": "function"
    },
    {
      "inputs": [
        {
          "internalType": "address",
          "name": "_addr",
          "type": "address"
        }
      ],
      "name": "setContractor",
      "outputs": [],
      "stateMutability": "nonpayable",
      "type": "function"
    }
  ],
  "bytecode": "0x608060405234801561001057600080fd5b5060006100216100c460201b60201c565b9050806000806101000a81548173ffffffffffffffffffffffffffffffffffffffff021916908373ffffffffffffffffffffffffffffffffffffffff1602179055508073ffffffffffffffffffffffffffffffffffffffff16600073ffffffffffffffffffffffffffffffffffffffff167f8be0079c531659141344cd1fd0a4f28419497f9722a3daafe3b4186f6b6457e060405160405180910390a3506100cc565b600033905090565b610cef806100db6000396000f3fe608060405234801561001057600080fd5b506004361061009e5760003560e01c8063a4bee76911610066578063a4bee76914610133578063af86e05414610163578063b103e46a1461017f578063d2445c89146101af578063f2fde38b146101cd5761009e565b80634aac4525146100a3578063715018a6146100bf57806372b73b05146100c9578063790d5750146100f95780638da5cb5b14610115575b600080fd5b6100bd60048036038101906100b891906108cb565b6101e9565b005b6100c7610244565b005b6100e360048036038101906100de91906108cb565b61037e565b6040516100f09190610af0565b60405180910390f35b610113600480360381019061010e91906108cb565b61039e565b005b61011d61045e565b60405161012a9190610ad5565b60405180910390f35b61014d600480360381019061014891906108cb565b610487565b60405161015a9190610af0565b60405180910390f35b61017d60048036038101906101789190610935565b6104a7565b005b610199600480360381019061019491906108f4565b610560565b6040516101a69190610ad5565b60405180910390f35b6101b7610677565b6040516101c49190610ad5565b60405180910390f35b6101e760048036038101906101e291906108cb565b61069d565b005b6001600360008373ffffffffffffffffffffffffffffffffffffffff1673ffffffffffffffffffffffffffffffffffffffff16815260200190815260200160002060006101000a81548160ff02191690831515021790555050565b61024c610846565b73ffffffffffffffffffffffffffffffffffffffff1661026a61045e565b73ffffffffffffffffffffffffffffffffffffffff16146102c0576040517f08c379a00000000000000000000000000000000000000000000000000000000081526004016102b790610b4b565b60405180910390fd5b600073ffffffffffffffffffffffffffffffffffffffff1660008054906101000a900473ffffffffffffffffffffffffffffffffffffffff1673ffffffffffffffffffffffffffffffffffffffff167f8be0079c531659141344cd1fd0a4f28419497f9722a3daafe3b4186f6b6457e060405160405180910390a360008060006101000a81548173ffffffffffffffffffffffffffffffffffffffff021916908373ffffffffffffffffffffffffffffffffffffffff160217905550565b60036020528060005260406000206000915054906101000a900460ff1681565b6103a6610846565b73ffffffffffffffffffffffffffffffffffffffff166103c461045e565b73ffffffffffffffffffffffffffffffffffffffff161461041a576040517f08c379a000000000000000000000000000000000000000000000000000000000815260040161041190610b4b565b60405180910390fd5b80600160006101000a81548173ffffffffffffffffffffffffffffffffffffffff021916908373ffffffffffffffffffffffffffffffffffffffff16021790555050565b60008060009054906101000a900473ffffffffffffffffffffffffffffffffffffffff16905090565b60046020528060005260406000206000915054906101000a900460ff1681565b806002836040516104b89190610abe565b908152602001604051809103902060006101000a81548173ffffffffffffffffffffffffffffffffffffffff021916908373ffffffffffffffffffffffffffffffffffffffff1602179055506001600460008373ffffffffffffffffffffffffffffffffffffffff1673ffffffffffffffffffffffffffffffffffffffff16815260200190815260200160002060006101000a81548160ff0219169083151502179055505050565b6000600560009054906101000a900473ffffffffffffffffffffffffffffffffffffffff1673ffffffffffffffffffffffffffffffffffffffff166002836040516105ab9190610abe565b908152602001604051809103902060009054906101000a900473ffffffffffffffffffffffffffffffffffffffff1673ffffffffffffffffffffffffffffffffffffffff161415610631576040517f08c379a000000000000000000000000000000000000000000000000000000000815260040161062890610b2b565b60405180910390fd5b6002826040516106419190610abe565b908152602001604051809103902060009054906101000a900473ffffffffffffffffffffffffffffffffffffffff169050919050565b600160009054906101000a900473ffffffffffffffffffffffffffffffffffffffff1681565b6106a5610846565b73ffffffffffffffffffffffffffffffffffffffff166106c361045e565b73ffffffffffffffffffffffffffffffffffffffff1614610719576040517f08c379a000000000000000000000000000000000000000000000000000000000815260040161071090610b4b565b60405180910390fd5b600073ffffffffffffffffffffffffffffffffffffffff168173ffffffffffffffffffffffffffffffffffffffff161415610789576040517f08c379a000000000000000000000000000000000000000000000000000000000815260040161078090610b0b565b60405180910390fd5b8073ffffffffffffffffffffffffffffffffffffffff1660008054906101000a900473ffffffffffffffffffffffffffffffffffffffff1673ffffffffffffffffffffffffffffffffffffffff167f8be0079c531659141344cd1fd0a4f28419497f9722a3daafe3b4186f6b6457e060405160405180910390a3806000806101000a81548173ffffffffffffffffffffffffffffffffffffffff021916908373ffffffffffffffffffffffffffffffffffffffff16021790555050565b600033905090565b600061086161085c84610b9c565b610b6b565b90508281526020810184848401111561087957600080fd5b610884848285610c31565b509392505050565b60008135905061089b81610ca2565b92915050565b600082601f8301126108b257600080fd5b81356108c284826020860161084e565b91505092915050565b6000602082840312156108dd57600080fd5b60006108eb8482850161088c565b91505092915050565b60006020828403121561090657600080fd5b600082013567ffffffffffffffff81111561092057600080fd5b61092c848285016108a1565b91505092915050565b6000806040838503121561094857600080fd5b600083013567ffffffffffffffff81111561096257600080fd5b61096e858286016108a1565b925050602061097f8582860161088c565b9150509250929050565b61099281610bf3565b82525050565b6109a181610c05565b82525050565b60006109b282610bcc565b6109bc8185610be8565b93506109cc818560208601610c40565b80840191505092915050565b60006109e5602683610bd7565b91507f4f776e61626c653a206e6577206f776e657220697320746865207a65726f206160008301527f64647265737300000000000000000000000000000000000000000000000000006020830152604082019050919050565b6000610a4b601d83610bd7565b91507f436f6e7374697475656e6379204e616d6520697320696e76616c69642e0000006000830152602082019050919050565b6000610a8b602083610bd7565b91507f4f776e61626c653a2063616c6c6572206973206e6f7420746865206f776e65726000830152602082019050919050565b6000610aca82846109a7565b915081905092915050565b6000602082019050610aea6000830184610989565b92915050565b6000602082019050610b056000830184610998565b92915050565b60006020820190508181036000830152610b24816109d8565b9050919050565b60006020820190508181036000830152610b4481610a3e565b9050919050565b60006020820190508181036000830152610b6481610a7e565b9050919050565b6000604051905081810181811067ffffffffffffffff82111715610b9257610b91610c73565b5b8060405250919050565b600067ffffffffffffffff821115610bb757610bb6610c73565b5b601f19601f8301169050602081019050919050565b600081519050919050565b600082825260208201905092915050565b600081905092915050565b6000610bfe82610c11565b9050919050565b60008115159050919050565b600073ffffffffffffffffffffffffffffffffffffffff82169050919050565b82818337600083830152505050565b60005b83811015610c5e578082015181840152602081019050610c43565b83811115610c6d576000848401525b50505050565b7f4e487b7100000000000000000000000000000000000000000000000000000000600052604160045260246000fd5b610cab81610bf3565b8114610cb657600080fd5b5056fea2646970667358221220f8d8265ed7133e1a93284e6d4ec43960fdd92529b337c595cabd3e87afdcbdb464736f6c63430008000033",
  "immutableReferences": {},
  "source": "//SPDX-License-Identifier: UNLICENSED\npragma solidity ^0.8.0;\n\nimport \"@openzeppelin/contracts/access/Ownable.sol\";\n\ncontract GovtDetails is Ownable {\n    address public govtAddress;\n    mapping(string => address) constituencyAddress;\n    mapping(address => bool) public isContractor;\n    mapping(address => bool) public isConstituency;\n    address emptyAddress;\n\n    modifier onlyConstituency() {\n        require(\n            isConstituency[msg.sender],\n            \"You are not allowed to do this action\"\n        );\n        _;\n    }\n\n    modifier onlyGovt() {\n        require(\n            msg.sender == govtAddress,\n            \"You are not allowed to do this action\"\n        );\n        _;\n    }\n\n    function getConstituencyAddress(string memory cName)\n        public\n        view\n        returns (address)\n    {\n        require(\n            constituencyAddress[cName] != emptyAddress,\n            \"Constituency Name is invalid.\"\n        );\n        return constituencyAddress[cName];\n    }\n\n    function setConstituencyAddress(string memory cName, address _addr) public {\n        constituencyAddress[cName] = _addr;\n        isConstituency[_addr] = true;\n    }\n\n    function setGovtAddress(address _addr) public onlyOwner {\n        govtAddress = _addr;\n    }\n\n    function setContractor(address _addr) public {\n        isContractor[_addr] = true;\n    }\n}\n",
  "sourcePath": "/Users/agrim/Desktop/Coding work/BlockchainDev/TaxChain/contracts/GovtDetails.sol",
  "compiler": {
    "name": "solc",
    "version": "0.8.0+commit.c7dfd78e.Emscripten.clang"
  },
  "schemaVersion": "3.4.0",
  "updatedAt": "2021-05-08T20:19:17.156Z",
  "networkType": "ethereum",
  "devdoc": {
    "kind": "dev",
    "methods": {
      "owner()": {
        "details": "Returns the address of the current owner."
      },
      "renounceOwnership()": {
        "details": "Leaves the contract without owner. It will not be possible to call `onlyOwner` functions anymore. Can only be called by the current owner. NOTE: Renouncing ownership will leave the contract without an owner, thereby removing any functionality that is only available to the owner."
      },
      "transferOwnership(address)": {
        "details": "Transfers ownership of the contract to a new account (`newOwner`). Can only be called by the current owner."
      }
    },
    "version": 1
  },
  "userdoc": {
    "kind": "user",
    "methods": {},
    "version": 1
  }
}