{
  "contractName": "GovtAllocate",
  "abi": [
    {
      "inputs": [
        {
          "internalType": "contract GovtDetails",
          "name": "_gov",
          "type": "address"
        }
      ],
      "stateMutability": "nonpayable",
      "type": "constructor"
    },
    {
      "anonymous": false,
      "inputs": [
        {
          "indexed": false,
          "internalType": "string",
          "name": "cName",
          "type": "string"
        },
        {
          "indexed": false,
          "internalType": "uint256",
          "name": "prevAmount",
          "type": "uint256"
        },
        {
          "indexed": false,
          "internalType": "uint256",
          "name": "newAmount",
          "type": "uint256"
        }
      ],
      "name": "AllocationDone",
      "type": "event"
    },
    {
      "inputs": [
        {
          "internalType": "address",
          "name": "",
          "type": "address"
        }
      ],
      "name": "allocations",
      "outputs": [
        {
          "internalType": "uint256",
          "name": "",
          "type": "uint256"
        }
      ],
      "stateMutability": "view",
      "type": "function",
      "constant": true
    },
    {
      "inputs": [
        {
          "internalType": "string",
          "name": "constituency",
          "type": "string"
        }
      ],
      "name": "allocateFunds",
      "outputs": [],
      "stateMutability": "payable",
      "type": "function",
      "payable": true
    },
    {
      "inputs": [
        {
          "internalType": "string",
          "name": "constituency",
          "type": "string"
        }
      ],
      "name": "getAllocation",
      "outputs": [
        {
          "internalType": "uint256",
          "name": "",
          "type": "uint256"
        }
      ],
      "stateMutability": "view",
      "type": "function",
      "constant": true
    }
  ],
  "bytecode": "0x608060405234801561001057600080fd5b50604051610ad2380380610ad28339818101604052810190610032919061008e565b80600160006101000a81548173ffffffffffffffffffffffffffffffffffffffff021916908373ffffffffffffffffffffffffffffffffffffffff16021790555050610112565b600081519050610088816100fb565b92915050565b6000602082840312156100a057600080fd5b60006100ae84828501610079565b91505092915050565b60006100c2826100db565b9050919050565b60006100d4826100b7565b9050919050565b600073ffffffffffffffffffffffffffffffffffffffff82169050919050565b610104816100c9565b811461010f57600080fd5b50565b6109b1806101216000396000f3fe6080604052600436106100345760003560e01c806302c35e8e1461003957806352a9039c14610076578063796bd7f9146100b3575b600080fd5b34801561004557600080fd5b50610060600480360381019061005b91906105e6565b6100cf565b60405161006d9190610755565b60405180910390f35b34801561008257600080fd5b5061009d60048036038101906100989190610594565b6101c6565b6040516100aa9190610755565b60405180910390f35b6100cd60048036038101906100c891906105e6565b6101de565b005b600080600160009054906101000a900473ffffffffffffffffffffffffffffffffffffffff1673ffffffffffffffffffffffffffffffffffffffff1663b103e46a846040518263ffffffff1660e01b815260040161012d91906106d5565b60206040518083038186803b15801561014557600080fd5b505afa158015610159573d6000803e3d6000fd5b505050506040513d601f19601f8201168201806040525081019061017d91906105bd565b90506000808273ffffffffffffffffffffffffffffffffffffffff1673ffffffffffffffffffffffffffffffffffffffff16815260200190815260200160002054915050919050565b60006020528060005260406000206000915090505481565b6000600160009054906101000a900473ffffffffffffffffffffffffffffffffffffffff1673ffffffffffffffffffffffffffffffffffffffff1663d2445c896040518163ffffffff1660e01b815260040160206040518083038186803b15801561024857600080fd5b505afa15801561025c573d6000803e3d6000fd5b505050506040513d601f19601f8201168201806040525081019061028091906105bd565b90508073ffffffffffffffffffffffffffffffffffffffff163373ffffffffffffffffffffffffffffffffffffffff16146102f0576040517f08c379a00000000000000000000000000000000000000000000000000000000081526004016102e790610735565b60405180910390fd5b6000600160009054906101000a900473ffffffffffffffffffffffffffffffffffffffff1673ffffffffffffffffffffffffffffffffffffffff1663b103e46a846040518263ffffffff1660e01b815260040161034d91906106d5565b60206040518083038186803b15801561036557600080fd5b505afa158015610379573d6000803e3d6000fd5b505050506040513d601f19601f8201168201806040525081019061039d91906105bd565b9050346000808373ffffffffffffffffffffffffffffffffffffffff1673ffffffffffffffffffffffffffffffffffffffff16815260200190815260200160002060008282546103ed91906107ed565b925050819055508073ffffffffffffffffffffffffffffffffffffffff166108fc349081150290604051600060405180830381858888f1935050505015801561043a573d6000803e3d6000fd5b507f583f09efd4b254ea19e056dba6351727d33f15d8f1345de9f8b4b9f4e13100a783346000808573ffffffffffffffffffffffffffffffffffffffff1673ffffffffffffffffffffffffffffffffffffffff168152602001908152602001600020546104a79190610843565b6000808573ffffffffffffffffffffffffffffffffffffffff1673ffffffffffffffffffffffffffffffffffffffff168152602001908152602001600020546040516104f5939291906106f7565b60405180910390a1505050565b6000610515610510846107a1565b610770565b90508281526020810184848401111561052d57600080fd5b6105388482856108b3565b509392505050565b60008135905061054f81610964565b92915050565b60008151905061056481610964565b92915050565b600082601f83011261057b57600080fd5b813561058b848260208601610502565b91505092915050565b6000602082840312156105a657600080fd5b60006105b484828501610540565b91505092915050565b6000602082840312156105cf57600080fd5b60006105dd84828501610555565b91505092915050565b6000602082840312156105f857600080fd5b600082013567ffffffffffffffff81111561061257600080fd5b61061e8482850161056a565b91505092915050565b6000610632826107d1565b61063c81856107dc565b935061064c8185602086016108c2565b61065581610953565b840191505092915050565b600061066d6025836107dc565b91507f596f7520617265206e6f7420616c6c6f77656420746f20646f2074686973206160008301527f6374696f6e0000000000000000000000000000000000000000000000000000006020830152604082019050919050565b6106cf816108a9565b82525050565b600060208201905081810360008301526106ef8184610627565b905092915050565b600060608201905081810360008301526107118186610627565b905061072060208301856106c6565b61072d60408301846106c6565b949350505050565b6000602082019050818103600083015261074e81610660565b9050919050565b600060208201905061076a60008301846106c6565b92915050565b6000604051905081810181811067ffffffffffffffff8211171561079757610796610924565b5b8060405250919050565b600067ffffffffffffffff8211156107bc576107bb610924565b5b601f19601f8301169050602081019050919050565b600081519050919050565b600082825260208201905092915050565b60006107f8826108a9565b9150610803836108a9565b9250827fffffffffffffffffffffffffffffffffffffffffffffffffffffffffffffffff03821115610838576108376108f5565b5b828201905092915050565b600061084e826108a9565b9150610859836108a9565b92508282101561086c5761086b6108f5565b5b828203905092915050565b600061088282610889565b9050919050565b600073ffffffffffffffffffffffffffffffffffffffff82169050919050565b6000819050919050565b82818337600083830152505050565b60005b838110156108e05780820151818401526020810190506108c5565b838111156108ef576000848401525b50505050565b7f4e487b7100000000000000000000000000000000000000000000000000000000600052601160045260246000fd5b7f4e487b7100000000000000000000000000000000000000000000000000000000600052604160045260246000fd5b6000601f19601f8301169050919050565b61096d81610877565b811461097857600080fd5b5056fea2646970667358221220ccc9c246ddf7b053708ca6ed91d6008390e78932d1b0a477a47477f092a5b69964736f6c63430008000033",
  "immutableReferences": {},
  "source": "//SPDX-License-Identifier: UNLICENSED\npragma solidity ^0.8.0;\n\nimport \"./GovtDetails.sol\";\n\ncontract GovtAllocate{\n    mapping(address=>uint) public allocations;\n\n    GovtDetails gov;\n\n    event AllocationDone(string cName, uint prevAmount, uint newAmount);\n\n    modifier OnlyGov() {\n        address govtAddress = gov.govtAddress();\n        require(msg.sender == govtAddress, \"You are not allowed to do this action\");\n        _;\n    }\n\n    constructor(GovtDetails _gov){\n        gov = _gov;\n    }\n\n    function allocateFunds(string memory constituency) public payable OnlyGov{\n        address payable constituencyAddress = payable(gov.getConstituencyAddress(constituency));\n        allocations[constituencyAddress] += msg.value;\n        constituencyAddress.transfer(msg.value);\n        emit AllocationDone(constituency, allocations[constituencyAddress]-msg.value, allocations[constituencyAddress]);\n    }\n\n    function getAllocation(string memory constituency) public view returns(uint){\n        address constituencyAddress = gov.getConstituencyAddress(constituency);\n        return allocations[constituencyAddress];\n    }\n}",
  "sourcePath": "/Users/agrim/Desktop/Coding work/BlockchainDev/TaxChain/contracts/GovtAllocate.sol",
  "compiler": {
    "name": "solc",
    "version": "0.8.0+commit.c7dfd78e.Emscripten.clang"
  },
  "schemaVersion": "3.4.0",
  "updatedAt": "2021-05-08T15:10:37.930Z",
  "networkType": "ethereum",
  "devdoc": {
    "kind": "dev",
    "methods": {},
    "version": 1
  },
  "userdoc": {
    "kind": "user",
    "methods": {},
    "version": 1
  }
}