{
  "contractName": "GovtDetails",
  "abi": [
    {
      "anonymous": false,
      "inputs": [
        {
          "indexed": true,
          "internalType": "address",
          "name": "previousOwner",
          "type": "address"
        },
        {
          "indexed": true,
          "internalType": "address",
          "name": "newOwner",
          "type": "address"
        }
      ],
      "name": "OwnershipTransferred",
      "type": "event"
    },
    {
      "inputs": [],
      "name": "govtAddress",
      "outputs": [
        {
          "internalType": "address",
          "name": "",
          "type": "address"
        }
      ],
      "stateMutability": "view",
      "type": "function"
    },
    {
      "inputs": [
        {
          "internalType": "address",
          "name": "",
          "type": "address"
        }
      ],
      "name": "isConstituency",
      "outputs": [
        {
          "internalType": "bool",
          "name": "",
          "type": "bool"
        }
      ],
      "stateMutability": "view",
      "type": "function"
    },
    {
      "inputs": [
        {
          "internalType": "address",
          "name": "",
          "type": "address"
        }
      ],
      "name": "isContractor",
      "outputs": [
        {
          "internalType": "bool",
          "name": "",
          "type": "bool"
        }
      ],
      "stateMutability": "view",
      "type": "function"
    },
    {
      "inputs": [],
      "name": "owner",
      "outputs": [
        {
          "internalType": "address",
          "name": "",
          "type": "address"
        }
      ],
      "stateMutability": "view",
      "type": "function"
    },
    {
      "inputs": [],
      "name": "renounceOwnership",
      "outputs": [],
      "stateMutability": "nonpayable",
      "type": "function"
    },
    {
      "inputs": [
        {
          "internalType": "address",
          "name": "newOwner",
          "type": "address"
        }
      ],
      "name": "transferOwnership",
      "outputs": [],
      "stateMutability": "nonpayable",
      "type": "function"
    },
    {
      "inputs": [
        {
          "internalType": "string",
          "name": "cName",
          "type": "string"
        }
      ],
      "name": "getConstituencyAddress",
      "outputs": [
        {
          "internalType": "address",
          "name": "",
          "type": "address"
        }
      ],
      "stateMutability": "view",
      "type": "function"
    },
    {
      "inputs": [
        {
          "internalType": "string",
          "name": "cName",
          "type": "string"
        },
        {
          "internalType": "address",
          "name": "_addr",
          "type": "address"
        }
      ],
      "name": "setConstituencyAddress",
      "outputs": [],
      "stateMutability": "nonpayable",
      "type": "function"
    },
    {
      "inputs": [
        {
          "internalType": "address",
          "name": "_addr",
          "type": "address"
        }
      ],
      "name": "setGovtAddress",
      "outputs": [],
      "stateMutability": "nonpayable",
      "type": "function"
    },
    {
      "inputs": [
        {
          "internalType": "address",
          "name": "_addr",
          "type": "address"
        }
      ],
      "name": "setContractor",
      "outputs": [],
      "stateMutability": "nonpayable",
      "type": "function"
    }
  ],
  "bytecode": "0x608060405234801561001057600080fd5b5060006100216100c460201b60201c565b9050806000806101000a81548173ffffffffffffffffffffffffffffffffffffffff021916908373ffffffffffffffffffffffffffffffffffffffff1602179055508073ffffffffffffffffffffffffffffffffffffffff16600073ffffffffffffffffffffffffffffffffffffffff167f8be0079c531659141344cd1fd0a4f28419497f9722a3daafe3b4186f6b6457e060405160405180910390a3506100cc565b600033905090565b610e7d806100db6000396000f3fe608060405234801561001057600080fd5b506004361061009e5760003560e01c8063a4bee76911610066578063a4bee76914610133578063af86e05414610163578063b103e46a1461017f578063d2445c89146101af578063f2fde38b146101cd5761009e565b80634aac4525146100a3578063715018a6146100bf57806372b73b05146100c9578063790d5750146100f95780638da5cb5b14610115575b600080fd5b6100bd60048036038101906100b891906109d3565b6101e9565b005b6100c76102d0565b005b6100e360048036038101906100de91906109d3565b61040a565b6040516100f09190610c5e565b60405180910390f35b610113600480360381019061010e91906109d3565b61042a565b005b61011d6104ea565b60405161012a9190610c43565b60405180910390f35b61014d600480360381019061014891906109d3565b610513565b60405161015a9190610c5e565b60405180910390f35b61017d60048036038101906101789190610a3d565b610533565b005b610199600480360381019061019491906109fc565b610668565b6040516101a69190610c43565b60405180910390f35b6101b761077f565b6040516101c49190610c43565b60405180910390f35b6101e760048036038101906101e291906109d3565b6107a5565b005b600460003373ffffffffffffffffffffffffffffffffffffffff1673ffffffffffffffffffffffffffffffffffffffff16815260200190815260200160002060009054906101000a900460ff16610275576040517f08c379a000000000000000000000000000000000000000000000000000000000815260040161026c90610c99565b60405180910390fd5b6001600360008373ffffffffffffffffffffffffffffffffffffffff1673ffffffffffffffffffffffffffffffffffffffff16815260200190815260200160002060006101000a81548160ff02191690831515021790555050565b6102d861094e565b73ffffffffffffffffffffffffffffffffffffffff166102f66104ea565b73ffffffffffffffffffffffffffffffffffffffff161461034c576040517f08c379a000000000000000000000000000000000000000000000000000000000815260040161034390610cd9565b60405180910390fd5b600073ffffffffffffffffffffffffffffffffffffffff1660008054906101000a900473ffffffffffffffffffffffffffffffffffffffff1673ffffffffffffffffffffffffffffffffffffffff167f8be0079c531659141344cd1fd0a4f28419497f9722a3daafe3b4186f6b6457e060405160405180910390a360008060006101000a81548173ffffffffffffffffffffffffffffffffffffffff021916908373ffffffffffffffffffffffffffffffffffffffff160217905550565b60036020528060005260406000206000915054906101000a900460ff1681565b61043261094e565b73ffffffffffffffffffffffffffffffffffffffff166104506104ea565b73ffffffffffffffffffffffffffffffffffffffff16146104a6576040517f08c379a000000000000000000000000000000000000000000000000000000000815260040161049d90610cd9565b60405180910390fd5b80600160006101000a81548173ffffffffffffffffffffffffffffffffffffffff021916908373ffffffffffffffffffffffffffffffffffffffff16021790555050565b60008060009054906101000a900473ffffffffffffffffffffffffffffffffffffffff16905090565b60046020528060005260406000206000915054906101000a900460ff1681565b61053b61094e565b73ffffffffffffffffffffffffffffffffffffffff166105596104ea565b73ffffffffffffffffffffffffffffffffffffffff16146105af576040517f08c379a00000000000000000000000000000000000000000000000000000000081526004016105a690610cd9565b60405180910390fd5b806002836040516105c09190610c2c565b908152602001604051809103902060006101000a81548173ffffffffffffffffffffffffffffffffffffffff021916908373ffffffffffffffffffffffffffffffffffffffff1602179055506001600460008373ffffffffffffffffffffffffffffffffffffffff1673ffffffffffffffffffffffffffffffffffffffff16815260200190815260200160002060006101000a81548160ff0219169083151502179055505050565b6000600560009054906101000a900473ffffffffffffffffffffffffffffffffffffffff1673ffffffffffffffffffffffffffffffffffffffff166002836040516106b39190610c2c565b908152602001604051809103902060009054906101000a900473ffffffffffffffffffffffffffffffffffffffff1673ffffffffffffffffffffffffffffffffffffffff161415610739576040517f08c379a000000000000000000000000000000000000000000000000000000000815260040161073090610cb9565b60405180910390fd5b6002826040516107499190610c2c565b908152602001604051809103902060009054906101000a900473ffffffffffffffffffffffffffffffffffffffff169050919050565b600160009054906101000a900473ffffffffffffffffffffffffffffffffffffffff1681565b6107ad61094e565b73ffffffffffffffffffffffffffffffffffffffff166107cb6104ea565b73ffffffffffffffffffffffffffffffffffffffff1614610821576040517f08c379a000000000000000000000000000000000000000000000000000000000815260040161081890610cd9565b60405180910390fd5b600073ffffffffffffffffffffffffffffffffffffffff168173ffffffffffffffffffffffffffffffffffffffff161415610891576040517f08c379a000000000000000000000000000000000000000000000000000000000815260040161088890610c79565b60405180910390fd5b8073ffffffffffffffffffffffffffffffffffffffff1660008054906101000a900473ffffffffffffffffffffffffffffffffffffffff1673ffffffffffffffffffffffffffffffffffffffff167f8be0079c531659141344cd1fd0a4f28419497f9722a3daafe3b4186f6b6457e060405160405180910390a3806000806101000a81548173ffffffffffffffffffffffffffffffffffffffff021916908373ffffffffffffffffffffffffffffffffffffffff16021790555050565b600033905090565b600061096961096484610d2a565b610cf9565b90508281526020810184848401111561098157600080fd5b61098c848285610dbf565b509392505050565b6000813590506109a381610e30565b92915050565b600082601f8301126109ba57600080fd5b81356109ca848260208601610956565b91505092915050565b6000602082840312156109e557600080fd5b60006109f384828501610994565b91505092915050565b600060208284031215610a0e57600080fd5b600082013567ffffffffffffffff811115610a2857600080fd5b610a34848285016109a9565b91505092915050565b60008060408385031215610a5057600080fd5b600083013567ffffffffffffffff811115610a6a57600080fd5b610a76858286016109a9565b9250506020610a8785828601610994565b9150509250929050565b610a9a81610d81565b82525050565b610aa981610d93565b82525050565b6000610aba82610d5a565b610ac48185610d76565b9350610ad4818560208601610dce565b80840191505092915050565b6000610aed602683610d65565b91507f4f776e61626c653a206e6577206f776e657220697320746865207a65726f206160008301527f64647265737300000000000000000000000000000000000000000000000000006020830152604082019050919050565b6000610b53602583610d65565b91507f596f7520617265206e6f7420616c6c6f77656420746f20646f2074686973206160008301527f6374696f6e0000000000000000000000000000000000000000000000000000006020830152604082019050919050565b6000610bb9601d83610d65565b91507f436f6e7374697475656e6379204e616d6520697320696e76616c69642e0000006000830152602082019050919050565b6000610bf9602083610d65565b91507f4f776e61626c653a2063616c6c6572206973206e6f7420746865206f776e65726000830152602082019050919050565b6000610c388284610aaf565b915081905092915050565b6000602082019050610c586000830184610a91565b92915050565b6000602082019050610c736000830184610aa0565b92915050565b60006020820190508181036000830152610c9281610ae0565b9050919050565b60006020820190508181036000830152610cb281610b46565b9050919050565b60006020820190508181036000830152610cd281610bac565b9050919050565b60006020820190508181036000830152610cf281610bec565b9050919050565b6000604051905081810181811067ffffffffffffffff82111715610d2057610d1f610e01565b5b8060405250919050565b600067ffffffffffffffff821115610d4557610d44610e01565b5b601f19601f8301169050602081019050919050565b600081519050919050565b600082825260208201905092915050565b600081905092915050565b6000610d8c82610d9f565b9050919050565b60008115159050919050565b600073ffffffffffffffffffffffffffffffffffffffff82169050919050565b82818337600083830152505050565b60005b83811015610dec578082015181840152602081019050610dd1565b83811115610dfb576000848401525b50505050565b7f4e487b7100000000000000000000000000000000000000000000000000000000600052604160045260246000fd5b610e3981610d81565b8114610e4457600080fd5b5056fea2646970667358221220f93b1d2029699de667673c6c4fceac64d46af95e744815a27bad13c532acf5aa64736f6c63430008000033",
  "immutableReferences": {},
  "source": "//SPDX-License-Identifier: UNLICENSED\npragma solidity ^0.8.0;\n\nimport \"@openzeppelin/contracts/access/Ownable.sol\";\n\ncontract GovtDetails is Ownable{\n    address public govtAddress;\n    mapping(string=>address) constituencyAddress;\n    mapping(address=>bool) public isContractor;\n    mapping(address=>bool) public isConstituency;\n    address emptyAddress;\n\n\n    modifier onlyConstituency() {\n        require(isConstituency[msg.sender], \"You are not allowed to do this action\");\n        _;\n    }\n\n    function getConstituencyAddress(string memory cName) public view returns(address){\n        require(constituencyAddress[cName] != emptyAddress,\"Constituency Name is invalid.\");\n        return constituencyAddress[cName];\n    }\n\n    function setConstituencyAddress(string memory cName, address _addr) public onlyOwner{\n        constituencyAddress[cName] = _addr;\n        isConstituency[_addr] = true;\n    }\n\n    function setGovtAddress(address _addr) public onlyOwner{\n        govtAddress = _addr;\n    }\n\n    function setContractor(address _addr) public onlyConstituency{\n        isContractor[_addr] = true;\n    }\n}",
  "sourcePath": "/Users/agrim/Desktop/Coding work/BlockchainDev/TaxChain/contracts/GovtDetails.sol",
  "compiler": {
    "name": "solc",
    "version": "0.8.0+commit.c7dfd78e.Emscripten.clang"
  },
  "schemaVersion": "3.4.0",
  "updatedAt": "2021-05-08T15:02:13.577Z",
  "devdoc": {
    "kind": "dev",
    "methods": {
      "owner()": {
        "details": "Returns the address of the current owner."
      },
      "renounceOwnership()": {
        "details": "Leaves the contract without owner. It will not be possible to call `onlyOwner` functions anymore. Can only be called by the current owner. NOTE: Renouncing ownership will leave the contract without an owner, thereby removing any functionality that is only available to the owner."
      },
      "transferOwnership(address)": {
        "details": "Transfers ownership of the contract to a new account (`newOwner`). Can only be called by the current owner."
      }
    },
    "version": 1
  },
  "userdoc": {
    "kind": "user",
    "methods": {},
    "version": 1
  }
}