{
  "contractName": "GovtDetails",
  "abi": [
    {
      "anonymous": false,
      "inputs": [
        {
          "indexed": true,
          "internalType": "address",
          "name": "previousOwner",
          "type": "address"
        },
        {
          "indexed": true,
          "internalType": "address",
          "name": "newOwner",
          "type": "address"
        }
      ],
      "name": "OwnershipTransferred",
      "type": "event"
    },
    {
      "inputs": [],
      "name": "govtAddress",
      "outputs": [
        {
          "internalType": "address",
          "name": "",
          "type": "address"
        }
      ],
      "stateMutability": "view",
      "type": "function",
      "constant": true
    },
    {
      "inputs": [
        {
          "internalType": "address",
          "name": "",
          "type": "address"
        }
      ],
      "name": "isContractor",
      "outputs": [
        {
          "internalType": "bool",
          "name": "",
          "type": "bool"
        }
      ],
      "stateMutability": "view",
      "type": "function",
      "constant": true
    },
    {
      "inputs": [],
      "name": "owner",
      "outputs": [
        {
          "internalType": "address",
          "name": "",
          "type": "address"
        }
      ],
      "stateMutability": "view",
      "type": "function",
      "constant": true
    },
    {
      "inputs": [],
      "name": "renounceOwnership",
      "outputs": [],
      "stateMutability": "nonpayable",
      "type": "function"
    },
    {
      "inputs": [
        {
          "internalType": "address",
          "name": "newOwner",
          "type": "address"
        }
      ],
      "name": "transferOwnership",
      "outputs": [],
      "stateMutability": "nonpayable",
      "type": "function"
    },
    {
      "inputs": [
        {
          "internalType": "string",
          "name": "cName",
          "type": "string"
        }
      ],
      "name": "getConstituencyAddress",
      "outputs": [
        {
          "internalType": "address",
          "name": "",
          "type": "address"
        }
      ],
      "stateMutability": "view",
      "type": "function",
      "constant": true
    },
    {
      "inputs": [
        {
          "internalType": "string",
          "name": "cName",
          "type": "string"
        },
        {
          "internalType": "address",
          "name": "_addr",
          "type": "address"
        }
      ],
      "name": "setConstituencyAddress",
      "outputs": [],
      "stateMutability": "nonpayable",
      "type": "function"
    },
    {
      "inputs": [
        {
          "internalType": "address",
          "name": "_addr",
          "type": "address"
        }
      ],
      "name": "setGovtAddress",
      "outputs": [],
      "stateMutability": "nonpayable",
      "type": "function"
    },
    {
      "inputs": [
        {
          "internalType": "address",
          "name": "_addr",
          "type": "address"
        }
      ],
      "name": "setContractor",
      "outputs": [],
      "stateMutability": "nonpayable",
      "type": "function"
    }
  ],
  "bytecode": "0x608060405234801561001057600080fd5b5060006100216100c460201b60201c565b9050806000806101000a81548173ffffffffffffffffffffffffffffffffffffffff021916908373ffffffffffffffffffffffffffffffffffffffff1602179055508073ffffffffffffffffffffffffffffffffffffffff16600073ffffffffffffffffffffffffffffffffffffffff167f8be0079c531659141344cd1fd0a4f28419497f9722a3daafe3b4186f6b6457e060405160405180910390a3506100cc565b600033905090565b610d34806100db6000396000f3fe608060405234801561001057600080fd5b50600436106100935760003560e01c80638da5cb5b116100665780638da5cb5b1461010a578063af86e05414610128578063b103e46a14610144578063d2445c8914610174578063f2fde38b1461019257610093565b80634aac452514610098578063715018a6146100b457806372b73b05146100be578063790d5750146100ee575b600080fd5b6100b260048036038101906100ad9190610910565b6101ae565b005b6100bc610285565b005b6100d860048036038101906100d39190610910565b6103bf565b6040516100e59190610b35565b60405180910390f35b61010860048036038101906101039190610910565b6103df565b005b61011261049f565b60405161011f9190610b1a565b60405180910390f35b610142600480360381019061013d919061097a565b6104c8565b005b61015e60048036038101906101599190610939565b6105a5565b60405161016b9190610b1a565b60405180910390f35b61017c6106bc565b6040516101899190610b1a565b60405180910390f35b6101ac60048036038101906101a79190610910565b6106e2565b005b6101b661088b565b73ffffffffffffffffffffffffffffffffffffffff166101d461049f565b73ffffffffffffffffffffffffffffffffffffffff161461022a576040517f08c379a000000000000000000000000000000000000000000000000000000000815260040161022190610b90565b60405180910390fd5b6001600360008373ffffffffffffffffffffffffffffffffffffffff1673ffffffffffffffffffffffffffffffffffffffff16815260200190815260200160002060006101000a81548160ff02191690831515021790555050565b61028d61088b565b73ffffffffffffffffffffffffffffffffffffffff166102ab61049f565b73ffffffffffffffffffffffffffffffffffffffff1614610301576040517f08c379a00000000000000000000000000000000000000000000000000000000081526004016102f890610b90565b60405180910390fd5b600073ffffffffffffffffffffffffffffffffffffffff1660008054906101000a900473ffffffffffffffffffffffffffffffffffffffff1673ffffffffffffffffffffffffffffffffffffffff167f8be0079c531659141344cd1fd0a4f28419497f9722a3daafe3b4186f6b6457e060405160405180910390a360008060006101000a81548173ffffffffffffffffffffffffffffffffffffffff021916908373ffffffffffffffffffffffffffffffffffffffff160217905550565b60036020528060005260406000206000915054906101000a900460ff1681565b6103e761088b565b73ffffffffffffffffffffffffffffffffffffffff1661040561049f565b73ffffffffffffffffffffffffffffffffffffffff161461045b576040517f08c379a000000000000000000000000000000000000000000000000000000000815260040161045290610b90565b60405180910390fd5b80600160006101000a81548173ffffffffffffffffffffffffffffffffffffffff021916908373ffffffffffffffffffffffffffffffffffffffff16021790555050565b60008060009054906101000a900473ffffffffffffffffffffffffffffffffffffffff16905090565b6104d061088b565b73ffffffffffffffffffffffffffffffffffffffff166104ee61049f565b73ffffffffffffffffffffffffffffffffffffffff1614610544576040517f08c379a000000000000000000000000000000000000000000000000000000000815260040161053b90610b90565b60405180910390fd5b806002836040516105559190610b03565b908152602001604051809103902060006101000a81548173ffffffffffffffffffffffffffffffffffffffff021916908373ffffffffffffffffffffffffffffffffffffffff1602179055505050565b6000600460009054906101000a900473ffffffffffffffffffffffffffffffffffffffff1673ffffffffffffffffffffffffffffffffffffffff166002836040516105f09190610b03565b908152602001604051809103902060009054906101000a900473ffffffffffffffffffffffffffffffffffffffff1673ffffffffffffffffffffffffffffffffffffffff161415610676576040517f08c379a000000000000000000000000000000000000000000000000000000000815260040161066d90610b70565b60405180910390fd5b6002826040516106869190610b03565b908152602001604051809103902060009054906101000a900473ffffffffffffffffffffffffffffffffffffffff169050919050565b600160009054906101000a900473ffffffffffffffffffffffffffffffffffffffff1681565b6106ea61088b565b73ffffffffffffffffffffffffffffffffffffffff1661070861049f565b73ffffffffffffffffffffffffffffffffffffffff161461075e576040517f08c379a000000000000000000000000000000000000000000000000000000000815260040161075590610b90565b60405180910390fd5b600073ffffffffffffffffffffffffffffffffffffffff168173ffffffffffffffffffffffffffffffffffffffff1614156107ce576040517f08c379a00000000000000000000000000000000000000000000000000000000081526004016107c590610b50565b60405180910390fd5b8073ffffffffffffffffffffffffffffffffffffffff1660008054906101000a900473ffffffffffffffffffffffffffffffffffffffff1673ffffffffffffffffffffffffffffffffffffffff167f8be0079c531659141344cd1fd0a4f28419497f9722a3daafe3b4186f6b6457e060405160405180910390a3806000806101000a81548173ffffffffffffffffffffffffffffffffffffffff021916908373ffffffffffffffffffffffffffffffffffffffff16021790555050565b600033905090565b60006108a66108a184610be1565b610bb0565b9050828152602081018484840111156108be57600080fd5b6108c9848285610c76565b509392505050565b6000813590506108e081610ce7565b92915050565b600082601f8301126108f757600080fd5b8135610907848260208601610893565b91505092915050565b60006020828403121561092257600080fd5b6000610930848285016108d1565b91505092915050565b60006020828403121561094b57600080fd5b600082013567ffffffffffffffff81111561096557600080fd5b610971848285016108e6565b91505092915050565b6000806040838503121561098d57600080fd5b600083013567ffffffffffffffff8111156109a757600080fd5b6109b3858286016108e6565b92505060206109c4858286016108d1565b9150509250929050565b6109d781610c38565b82525050565b6109e681610c4a565b82525050565b60006109f782610c11565b610a018185610c2d565b9350610a11818560208601610c85565b80840191505092915050565b6000610a2a602683610c1c565b91507f4f776e61626c653a206e6577206f776e657220697320746865207a65726f206160008301527f64647265737300000000000000000000000000000000000000000000000000006020830152604082019050919050565b6000610a90601d83610c1c565b91507f436f6e7374697475656e6379204e616d6520697320696e76616c69642e0000006000830152602082019050919050565b6000610ad0602083610c1c565b91507f4f776e61626c653a2063616c6c6572206973206e6f7420746865206f776e65726000830152602082019050919050565b6000610b0f82846109ec565b915081905092915050565b6000602082019050610b2f60008301846109ce565b92915050565b6000602082019050610b4a60008301846109dd565b92915050565b60006020820190508181036000830152610b6981610a1d565b9050919050565b60006020820190508181036000830152610b8981610a83565b9050919050565b60006020820190508181036000830152610ba981610ac3565b9050919050565b6000604051905081810181811067ffffffffffffffff82111715610bd757610bd6610cb8565b5b8060405250919050565b600067ffffffffffffffff821115610bfc57610bfb610cb8565b5b601f19601f8301169050602081019050919050565b600081519050919050565b600082825260208201905092915050565b600081905092915050565b6000610c4382610c56565b9050919050565b60008115159050919050565b600073ffffffffffffffffffffffffffffffffffffffff82169050919050565b82818337600083830152505050565b60005b83811015610ca3578082015181840152602081019050610c88565b83811115610cb2576000848401525b50505050565b7f4e487b7100000000000000000000000000000000000000000000000000000000600052604160045260246000fd5b610cf081610c38565b8114610cfb57600080fd5b5056fea26469706673582212206d8c0b3631562e797b2a2c5adb1aa8af4c66df0d8bbaab24b4875b7c6ab0b3f564736f6c63430008000033",
  "immutableReferences": {},
  "source": "//SPDX-License-Identifier: UNLICENSED\npragma solidity ^0.8.0;\n\nimport \"@openzeppelin/contracts/access/Ownable.sol\";\n\ncontract GovtDetails is Ownable{\n    address public govtAddress;\n    mapping(string=>address) constituencyAddress;\n    mapping(address=>bool) public isContractor;\n    address emptyAddress;\n\n    function getConstituencyAddress(string memory cName) public view returns(address){\n        require(constituencyAddress[cName] != emptyAddress,\"Constituency Name is invalid.\");\n        return constituencyAddress[cName];\n    }\n\n    function setConstituencyAddress(string memory cName, address _addr) public onlyOwner{\n        constituencyAddress[cName] = _addr;\n    }\n\n    function setGovtAddress(address _addr) public onlyOwner{\n        govtAddress = _addr;\n    }\n\n    function setContractor(address _addr) public onlyOwner{\n        isContractor[_addr] = true;\n    }\n}",
  "sourcePath": "/Users/agrim/Desktop/Coding work/BlockchainDev/TaxChain/contracts/GovtDetails.sol",
  "compiler": {
    "name": "solc",
    "version": "0.8.0+commit.c7dfd78e.Emscripten.clang"
  },
  "schemaVersion": "3.4.0",
  "updatedAt": "2021-05-08T14:12:58.367Z",
  "networkType": "ethereum",
  "devdoc": {
    "kind": "dev",
    "methods": {
      "owner()": {
        "details": "Returns the address of the current owner."
      },
      "renounceOwnership()": {
        "details": "Leaves the contract without owner. It will not be possible to call `onlyOwner` functions anymore. Can only be called by the current owner. NOTE: Renouncing ownership will leave the contract without an owner, thereby removing any functionality that is only available to the owner."
      },
      "transferOwnership(address)": {
        "details": "Transfers ownership of the contract to a new account (`newOwner`). Can only be called by the current owner."
      }
    },
    "version": 1
  },
  "userdoc": {
    "kind": "user",
    "methods": {},
    "version": 1
  }
}